{
  "_format": "hh-sol-artifact-1",
  "contractName": "Transactions",
  "sourceName": "contracts/Transactions.sol",
  "abi": [
    {
      "anonymous": false,
      "inputs": [
        {
          "indexed": false,
          "internalType": "address",
          "name": "from",
          "type": "address"
        },
        {
          "indexed": false,
          "internalType": "address",
          "name": "receiver",
          "type": "address"
        },
        {
          "indexed": false,
          "internalType": "uint256",
          "name": "amount",
          "type": "uint256"
        },
        {
          "indexed": false,
          "internalType": "string",
          "name": "message",
          "type": "string"
        },
        {
          "indexed": false,
          "internalType": "uint256",
          "name": "timestamp",
          "type": "uint256"
        },
        {
          "indexed": false,
          "internalType": "string",
          "name": "keyword",
          "type": "string"
        }
      ],
      "name": "Transfer",
      "type": "event"
    },
    {
      "inputs": [
        {
          "internalType": "address payable",
          "name": "receiver",
          "type": "address"
        },
        {
          "internalType": "uint256",
          "name": "amount",
          "type": "uint256"
        },
        {
          "internalType": "string",
          "name": "message",
          "type": "string"
        },
        {
          "internalType": "string",
          "name": "keyword",
          "type": "string"
        }
      ],
      "name": "addToBlockcain",
      "outputs": [],
      "stateMutability": "nonpayable",
      "type": "function"
    },
    {
      "inputs": [],
      "name": "getAllTransactions",
      "outputs": [
        {
          "components": [
            {
              "internalType": "address",
              "name": "sender",
              "type": "address"
            },
            {
              "internalType": "address",
              "name": "receviver",
              "type": "address"
            },
            {
              "internalType": "uint256",
              "name": "amount",
              "type": "uint256"
            },
            {
              "internalType": "string",
              "name": "message",
              "type": "string"
            },
            {
              "internalType": "uint256",
              "name": "timestamp",
              "type": "uint256"
            },
            {
              "internalType": "string",
              "name": "keyword",
              "type": "string"
            }
          ],
          "internalType": "struct Transactions.TransferStruct[]",
          "name": "",
          "type": "tuple[]"
        }
      ],
      "stateMutability": "view",
      "type": "function"
    },
    {
      "inputs": [],
      "name": "getTransactionCount",
      "outputs": [
        {
          "internalType": "uint256",
          "name": "",
          "type": "uint256"
        }
      ],
      "stateMutability": "view",
      "type": "function"
    }
  ],
  "bytecode": "0x608060405234801561001057600080fd5b50610cbc806100206000396000f3fe608060405234801561001057600080fd5b50600436106100415760003560e01c80631e47974a1461004657806327506f53146100625780632e7700f014610080575b600080fd5b610060600480360381019061005b9190610784565b61009e565b005b61006a6102a7565b6040516100779190610a2d565b60405180910390f35b6100886104ea565b6040516100959190610a5e565b60405180910390f35b60016000808282546100b09190610aa8565b9250508190555060016040518060c001604052803373ffffffffffffffffffffffffffffffffffffffff1681526020018673ffffffffffffffffffffffffffffffffffffffff16815260200185815260200184815260200142815260200183815250908060018154018082558091505060019003906000526020600020906006020160009091909190915060008201518160000160006101000a81548173ffffffffffffffffffffffffffffffffffffffff021916908373ffffffffffffffffffffffffffffffffffffffff16021790555060208201518160010160006101000a81548173ffffffffffffffffffffffffffffffffffffffff021916908373ffffffffffffffffffffffffffffffffffffffff1602179055506040820151816002015560608201518160030190805190602001906101ef9291906104f3565b506080820151816004015560a08201518160050190805190602001906102169291906104f3565b5050507f416cfa4330a4565f45c2fd2dd4826a83a37443aba2ce6f79477c7355afac35fa33858585428660405161025296959493929190610bb6565b60405180910390a18373ffffffffffffffffffffffffffffffffffffffff166108fc849081150290604051600060405180830381858888f193505050501580156102a0573d6000803e3d6000fd5b5050505050565b60606001805480602002602001604051908101604052809291908181526020016000905b828210156104e157838290600052602060002090600602016040518060c00160405290816000820160009054906101000a900473ffffffffffffffffffffffffffffffffffffffff1673ffffffffffffffffffffffffffffffffffffffff1673ffffffffffffffffffffffffffffffffffffffff1681526020016001820160009054906101000a900473ffffffffffffffffffffffffffffffffffffffff1673ffffffffffffffffffffffffffffffffffffffff1673ffffffffffffffffffffffffffffffffffffffff168152602001600282015481526020016003820180546103b490610c54565b80601f01602080910402602001604051908101604052809291908181526020018280546103e090610c54565b801561042d5780601f106104025761010080835404028352916020019161042d565b820191906000526020600020905b81548152906001019060200180831161041057829003601f168201915b505050505081526020016004820154815260200160058201805461045090610c54565b80601f016020809104026020016040519081016040528092919081815260200182805461047c90610c54565b80156104c95780601f1061049e576101008083540402835291602001916104c9565b820191906000526020600020905b8154815290600101906020018083116104ac57829003601f168201915b505050505081525050815260200190600101906102cb565b50505050905090565b60008054905090565b8280546104ff90610c54565b90600052602060002090601f0160209004810192826105215760008555610568565b82601f1061053a57805160ff1916838001178555610568565b82800160010185558215610568579182015b8281111561056757825182559160200191906001019061054c565b5b5090506105759190610579565b5090565b5b8082111561059257600081600090555060010161057a565b5090565b6000604051905090565b600080fd5b600080fd5b600073ffffffffffffffffffffffffffffffffffffffff82169050919050565b60006105d5826105aa565b9050919050565b6105e5816105ca565b81146105f057600080fd5b50565b600081359050610602816105dc565b92915050565b6000819050919050565b61061b81610608565b811461062657600080fd5b50565b60008135905061063881610612565b92915050565b600080fd5b600080fd5b6000601f19601f8301169050919050565b7f4e487b7100000000000000000000000000000000000000000000000000000000600052604160045260246000fd5b61069182610648565b810181811067ffffffffffffffff821117156106b0576106af610659565b5b80604052505050565b60006106c3610596565b90506106cf8282610688565b919050565b600067ffffffffffffffff8211156106ef576106ee610659565b5b6106f882610648565b9050602081019050919050565b82818337600083830152505050565b6000610727610722846106d4565b6106b9565b90508281526020810184848401111561074357610742610643565b5b61074e848285610705565b509392505050565b600082601f83011261076b5761076a61063e565b5b813561077b848260208601610714565b91505092915050565b6000806000806080858703121561079e5761079d6105a0565b5b60006107ac878288016105f3565b94505060206107bd87828801610629565b935050604085013567ffffffffffffffff8111156107de576107dd6105a5565b5b6107ea87828801610756565b925050606085013567ffffffffffffffff81111561080b5761080a6105a5565b5b61081787828801610756565b91505092959194509250565b600081519050919050565b600082825260208201905092915050565b6000819050602082019050919050565b600061085a826105aa565b9050919050565b61086a8161084f565b82525050565b61087981610608565b82525050565b600081519050919050565b600082825260208201905092915050565b60005b838110156108b957808201518184015260208101905061089e565b838111156108c8576000848401525b50505050565b60006108d98261087f565b6108e3818561088a565b93506108f381856020860161089b565b6108fc81610648565b840191505092915050565b600060c08301600083015161091f6000860182610861565b5060208301516109326020860182610861565b5060408301516109456040860182610870565b506060830151848203606086015261095d82826108ce565b91505060808301516109726080860182610870565b5060a083015184820360a086015261098a82826108ce565b9150508091505092915050565b60006109a38383610907565b905092915050565b6000602082019050919050565b60006109c382610823565b6109cd818561082e565b9350836020820285016109df8561083f565b8060005b85811015610a1b57848403895281516109fc8582610997565b9450610a07836109ab565b925060208a019950506001810190506109e3565b50829750879550505050505092915050565b60006020820190508181036000830152610a4781846109b8565b905092915050565b610a5881610608565b82525050565b6000602082019050610a736000830184610a4f565b92915050565b7f4e487b7100000000000000000000000000000000000000000000000000000000600052601160045260246000fd5b6000610ab382610608565b9150610abe83610608565b9250827fffffffffffffffffffffffffffffffffffffffffffffffffffffffffffffffff03821115610af357610af2610a79565b5b828201905092915050565b610b078161084f565b82525050565b6000819050919050565b6000610b32610b2d610b28846105aa565b610b0d565b6105aa565b9050919050565b6000610b4482610b17565b9050919050565b6000610b5682610b39565b9050919050565b610b6681610b4b565b82525050565b600082825260208201905092915050565b6000610b888261087f565b610b928185610b6c565b9350610ba281856020860161089b565b610bab81610648565b840191505092915050565b600060c082019050610bcb6000830189610afe565b610bd86020830188610b5d565b610be56040830187610a4f565b8181036060830152610bf78186610b7d565b9050610c066080830185610a4f565b81810360a0830152610c188184610b7d565b9050979650505050505050565b7f4e487b7100000000000000000000000000000000000000000000000000000000600052602260045260246000fd5b60006002820490506001821680610c6c57607f821691505b60208210811415610c8057610c7f610c25565b5b5091905056fea2646970667358221220ba0c3067804e0b59424641fe8f68c702f97d1029b69bdd4bba368717741b4ad064736f6c63430008090033",
  "linkReferences": {},
  "deployedLinkReferences": {}
}